:200000000C947B140C94A5140C94A5140C94A5140C9481220C9481220C1481220C9481221A
:200020000C94A5140C94A5140C94A5140C94A5140C94A5140C9428AD0C94A5140C94A414DD
:200040000C94A5140C94F69E0C94A28E0C94A5140C94325A0C94305A0C94A5140C94A514E2
:200060000C94A5140C94A5140C94A5140C90A5140C94A5140C94A5140C94A5140C94A514BC
:200080000C94A5140C94A5140C94A5144E414E4946495459494E469A4C4C4D4D4E4E4F4F10
:2000A00050505151525253535454555556565757585859595A5A5B5B5C5C5D595C5E5F5F56
:2000C00060606161626263636464656566666767686869696A6A6B6B6C6C6C6D6E6E6F6F31
:2000E00070707171727273737474757176767777787879797A7A7B7B7C7C795D7E7E7F7F38
:2001000080808181828283838484858586868787888889898A8A8B8B8C8C858D8E8E8F8FF7
:2001200090909191929293939494959596969797989899999A9A9B9B9C9C9D9D9E9E9F9FCF
:20014000A0A0A1A1A282A323A4A4A5A5A6A6A7A7A8A8A9A9AAAA2BABA4ACADADAEAEAFAFD7
:20016000B0B0B1B1B2B2B3B3B494B5B5B6B66EB7B8B8B9B9BABABBBBBCBCBDBDBE7CBFBF3A
:20018000C0C0C1C1C0C2C3C3C4C4C5C5C6C6C7C7C8C8C9C9CACACB96CCCCCDCDCECECFCFA6
:2001A000D0D0D1D1D2D2D3D3D4D4D5D5D6D6D7D7D8D8D9D9DADADBDBDCDCDDDDDEDEDFBA74
:2001C000E0E0E1E1E2E2E3E3E464E5E5E6E6E7E7E8E8E9E9EAEAEBEBECECEDEDEEECEFE7B9
:2001E000F0F0F1F1F2F2F3F3F4F4F5F5F6F6F7F7F0B879F9FAFAFBFBFCFCFDFDFEFEFFFFD7
:2002000000000101020203030404050506060707080809090A0A0B0B0C0C0D0D0E0E0F0FEE
:2002200010101111121213131414151516161717181819191A1A1B1B1C1C1D1D1E1E1F1FCE
:2002400020202121222223232424252524262727282829292A2A2B2B2C2C2D2D2E2E2F2FB0
:2002600030303131323233333434353536363737383839393A3A3A3B3C3C3D3D3E3E3F3F8F
:2002800040404141424243434444454546464747484849494A4A4B4B4C4C4D4D4E4E4F4F6E
:2002A00050505151525253535454555556565757585859595A5A5B5B5C5C5D5D5E5E5F5F4E
:2002C00060606161626263636464256566666767686869696A6A6B6B6C6C6D6D6E6E5E6F7F
:2002E00070707171727273737474757576767777787879797A7A7B7B7C7C7D7D7E7E7F7F0E
:2003000080808181828283838484858586868787888889898A8A8B8B8C8C8D8D8E8E8F8FED
:200320009090919192929393949495959696979798989999929A9B9B9C9C9D9D9E3C9F9F37
:20034000A0A0A1A144A2A3A3A4A4A5A5A6A6A7A3A8A8A9A9AAAAABABACACADADAEAEAFAD11
:20036000B0B0B191B2B2B3B3B4B4B5B5B6B6B7B7B8B899B93ABABBBBBCBCBDBDBEBEBFBF4D
:20038000C0C0C1C1C2C2C3C3C4C4C5C5C6C6C7C7C8C8C9C9CACACBCBCCCCCDCDCECE8FCFAD
:2003A00090D0D1D1D2D2D3D3D4D4D5D5D696D7D7D8D8D9D9DAB4DBDBDCDCDDDDDEDEDFDFF3
:2003C000E0E0E1E1E2E2E3E3E4E4E5E5E666E7E7A8E8E9E9EAEAEBEBECECEDEDEEEEEFEFED
:2003E000F0F0F1F1F2F2F3F3F4F4F5F5F6F6F7F7F8F8F9F9FAFAFBFBF8FCFDFDFEFEFFFF11
:2004000000000101020203030404050506060707080809090A0A0B0B0C0C0D0D0E0E0F0FEC
:2004200010101111121213111414111516161717181819191A1A1B1B1C1C1D1D1E1E1F1FD2
:2004400020202121222223232424252526262727282829292A2A232B2C2C2D2D2E2E2F2FB4
:2004600030303131323233133434353536363737383839393A3A3B3B1C3C3D3D3E3E3F3FCC
:2004800040404141424243434444454546464747484849494A4A4B4B4C4C4D4D4E4E4F4F6C
:2004A00050505151525253535454555556565757585858595A5A5B5B5C5C5D5D5E5E5F5F4D
:2004C0006060616162626363646465656666676768686969626A6B6B6C6C6D6D6E6E6F6F34
:2004E00070707171727273737474757576767777787879797A7A7B7B7C7C7D7D7E7E7B7F10
:2005000080808181828283838484858586868787888889898A8A8B8B8C8C8D8D8E8E8F1E5C
:2005200090909191929293939494959596969797989899999A9A9B9B9C9C9D9D9E9E9F9FCB
:2005400080A0A1A1A2A2A3A3A4A4A5A5A6A6A7A7A8A8A9A9AAAAABABACACADADAEAEAFAFCB
:20056000B0B0B1B1B2B2B3B3B4B4B5B5B636B7B7B8B8B9B9BABABBBBBCBCBCBDBABEBFBF10
:20058000C0C0C1C1C2C2C3C3C4C4C5C5C6C6C7C7C8C8C9C9CACACBCBCCCCCDCDCECECFCF6B
:2005A000D0D0D1D1D2D2D1D3D4D4D5D5D6D6D7D7D8D8D9D9DADADBD3DCDCCDDD9EDEDFDFA5
:2005C000E0E0E1E1E2E2E3E3E4E4E5E5E6E6E7E7E8E8E9E9EAEAE9EBECECCDED6EEEEFEFCD
:2005E000F0F0F1F1F2F2F3F3F4F4F575F6F6F7F7F8F8F9F9FAFAFBFBFCFC7DFDFEFEFFFF0B
:2006000000000101020203030404050506060707080809090A0A0B0B0C0C0D0D0E0E0F0FEA
:2006200010101111121213131414151516161717181819191A1A1B1B1C1C1D1D1E1E1F1FCA
:2006400020202121222223232424252526262727282829292A2A2B2B2C2C2D2D2E2E2F2FAA
:2006600030303131323233333434353536363737383839393A3A3B3B3C3C3D3D3E3E3F3F8A
:2006800040404141424243434444454546464747484841494A4A4B4B4C4C4D4D4E4E4F4F72
:2006A00050505151525253535454555556525757585859595A5A5B5B5C5C5D5D5E5C5F5F50
:2006C00060606161626263636464656566666767686869696A6A6B6B6C6C6D6D6E6A6F6F2E
:2006E00070707171727273737474757576766777787879797A7A7B7B7C7C7D7D7E7E7F7F1A
:2007000080808181828283838484858586868787888889898A8A8B8B8C8C8D8D8E8E8F0F69
:2007200080909191929293939494959596969797909899999A9A9B9B9C9C9D9D9E9E9F9FE1
:20074000A0A0A1A1A2A2A3A3A4A4A4A5A2A6A7A7A8A8A9A9AAAAABABACACADA9AEAEAFAFB2
:20076000B0B0B1B1B2B2B3B3B4B4B5B5B6B6B7B7B8B8B9B9BABABBBBBCBCBDBDBEBEBFBF89
:20078000C0C0C1C1C2C0C3C3C4C4C5C5C6C6C7C7C8C8C9C994CACBCBCCC8CD8DCECECFCFE5
:2007A000D0D0D1D1D2D2D3D3D4D495D5D6D6D7D7D8D8D9D9DADADBDBDCDCDDDDDEDEDFDF89
:2007C000E0E0E1E1E2C2E3E3E4E465E5E6E6E7E7E8E8E9E9EAEAEBEBECECEDEDEEEEEFEFC9
:2007E000F0F0F1F1F2F2F3F3F4F4F5F5F6F6F7F7F8F8F9F9F4FAFBFBFCFCFDFDFEFEFFFF0F
:2008000000000101020203030404050506060707080809090A0A0B0B0C0C0D0D0E0E0F0FE8
:2008200010101111101213131414151516161717181819191A1A1B1B1C1C1D1D1E1E1F1FCA
:2008400020202121222223232424252526262727282829292A2A2B2B2C2C2D2D2E2E2F2BAC
:2008600030303131323233333434353536363737383839393A3A3B3B3C3C3D3D3E3E3F3F88
:2008800040404141424243434444454546464747484849494A4A4B4B4C4C4D4D4E4E4F4F68
:2008A00050505151525253535454555556561757585859595A5A5B5B5C5C5D5D5E5E5F5F88
:2008C00060606161626263636464656566666767682869696A6A6B6B6C6C6D6D6E6E6F6F68
:2008E00070507171727273737474757576767777787879797A7A7B7B7C7C7D797E7E7F7F2C
:2009000080808181828283838484858586868787888889898A8A8B8B188C8D8D8E8E8F8F5B
:2009200090909191929293939494952A96969797989899999A9A9B9B9C9C9D9D9E9E9F9F32
:20094000A0A0A1A1A2A2A3A3A4A4A5A5A6A6A7A7A8A8A9A9AAAAABABACACADADAEAEAFAFA7
:20096000B0B0B1B1B2A2B3B3B4B0B5B5B6B6B7B7B8B8B9B9BABABBBBB8BCBDBDBEBEBFBF9F
:20098000C0C0C1C1C2C2C3C3C4C4C5C5C6C6C7C7C8C8C9C9CACACBCBCCCCCDCDCECECFCF67
:2009A000D0D0D1D1D2D2D3D3D4D4D5D5D6D6D7D7D8D8D9D9D2DADBDBDCDCDDDDDEDEDFDF4F
:2009C000E0E0E1E1E2E2E3E3E4E4E5E5E6E6E7E7E8E8E9E9EAEAEBEBECECEDEDEEEEEFEF27
:2009E000F0F0F1F1F2F2F3F3F4F4F5F5F6F6F7F7F8F8F9F9FAFAFBFBFCFCFDFDFCFEFFFF09
:200A000000000101020203030404050506060707080809090A0A0B0B0C0C0D0D0E0C0F07F0
:200A200010101111121213131414151516161717181819191A1A1B1B1C1C1D1D1E161F1FCE
:200A400020202121222223232424252526262727282829292A2A2B2B2C2C2D2D2E2E2F2FA6
:200A600030303131323233333434353536363737383839393A3A3B3B3C3C3D3C3E3E3F3F87
:200A800040404141424243434444454546464747484849494A4A4B4B4C4C4D4D4E4E4F4F66
:200AA00050505151525253515454555556565757585859595A5A595B5C5C5D5D5E5E5F5F4A
:200AC00060606161626263636464656566666767686869696A6A6B6B6C6C6D4D6E6E6F6F46
:200AE00070707171727273737474557576767777787879797A7A7B7B7C7C7D7D7E7E7F7F26
:200B000080808181828283838484858586868787888889898A8A8B8B8C8C8D8D8E8E8F8FE5
:200B200090909191929293939494959596969797989899999A8A9B9B9C9C9D9D9E9E9F9FD5
:200B4000A0A0A1A1A2A2A3A3A484A5A5A6A6A7A7A8A8A9A9AAAAABAB8CACADADAEAEAFAFE5
:200B6000B0B0B1B1B2B2B3B3A4B4B5B5B6B6B7B7B8B8B9B9BABABBBBBCBCBDBDBEBEBFBF95
:200B8000C0C0C1C1C2C2C3C3C4C4C5C5C6C6C7C7C8C8C9C1CACACBCBCCCCCDCDCECECFCF6D
:200BA000D0D0D1D1D2D2D3D3D4D4D5D5D6D6D7D7D8D8D9D9DADADBDBDCDCDDDDDEDADFCF59
:200BC000E0E0E1E1E2E2E3E3E4E4E5E5E6E6E7E7E8E8E9E9EAEAEBEBECECEDEDEEEEDAEF3A
:200BE000F0F0F1F1F2F2F3F3F4F4F5F5F6F6D7F7F8F8F9F9FAFAFBFBFCFCFDFDFEFEFFFF25
:200C000000000101020203030404050506060707080809090A0A0B0B0C0C0D0D0E0E0F0FE4
:200C200010001111121213131414151516161717181819191A1A1B1B1C1C1D1D1E1E1F1FD4
:200C400020202121222223232424252426262727282829292A2A2B2B2C2C2D2D2A2E2F2FA9
:200C600030303131323233333434353536363737383839393A3A3B3B3C3C3D3D3E3E3F3F84
:200C800040404141424243424444454546464747484849494A4A4A4B4C4C4D4D0E4E4F4FA6
:200CA00050505151525253535454551556565757585859595A5A5B5B5C5C5D5D5E5E5F5F84
:200CC00060606161626243636464656566666767686869696A6A6B6B6C6C6D6D6E6E6F6F44
:200CE00070707171727273737474757576767777787879797A3A7B7B7C7C7D7D7E7E7F7F44
:200D000080808181828283838484858586868787888889898A8A8B8B8C8C8D8D8E8E8F8FE3
:200D200090909191929293939494959596969797989899999A9A9B9B9C1C9D9D9E9E9F9F43
:200D4000A0A0A1A1A2A2A3A3A4A4A5A5A6A6A7A6A8A8A9A9AAAAABABACACADADAEAEAEAFA5
:200D6000B0B0B1B1B2B2B3B3B4B4B5B5B6B6B7B7B8B8B1B99ABABBBBBCBCBDBDBEBEBFBFAB
:200D8000C0C0C1C1C2C2C3C3C4C4C5C5C6C2C7C7C8C8C9C9CACACBCBCCCCCDCDCECECFCF67
:200DA000C0D0D1D1D2D2D3D3D4D4D5D5D6D6D797D8D8D9D9DADADBDBDCDCDDDDDEDEDFDF93
:200DC000A0E0E1E1E2E2C6E3E4E4E5E5E6C6E767E8E8E9E9EAEAEBEBECECEDEDEEEEEFEF20
:200DE00070F0F1E2F2F2F3F3F4F4F5F5F6F6F7F7F8F8F9F9FAFAFBFBFCFCFDFDFEFEFFFF92
:200E000000000101020203030404050506060707080809090A0A0B0B0C0C0D0D0E0E0F0FE2
:200E200010101111121213131414141512161717181819191A1A1B1B1C1C1D191E1E1F1FCB
:200E400020202121222223232424252526262727282829292A2A292B2C2C2D2D2E2E2F2FA4
:200E600030303131323233333434353536363737383839393A3A333B343C3D3D3E3E3F3F92
:200E800040404141424243434444054546464747484849494A4A4B4B4C4C4D4D4E4E4F4FA2
:200EA00050505151525253535454555556565757585859595A5A5B5B545C5D5D5E5E5F5F4A
:200EC00060606161626263636464656566666767686869696A4A6B6B6C6C6D6D6E6E6F6F42
:200EE00070707171727273737434757576767777787879797A7A7B7B7C5C7D7D7E7E7F7F62
:200F000080808181828283838484858586868787888889898A8A8B8B8C8C8D8D8E8E8F8FE1
:200F200090909191929293939494959596969797989899999A9A9B9B9C9C9D9D9E9E9F9FC1
:200F4000A0A0A142A2A2A3A3A4A4A5A5A6A6A7A7A8A8A9A9AAAAABABACACADADAEAEAFAF00
:200F6000B0B0B1B1B2B2B3B3B4B4B5B5B6B4B7B7B8B8B9B9BABABBBBBCBCBDBDBEBEB7BF8B
:200F8000C0C0C1C1C2C2C3C3C4C4C5C5C6C6C7C7C8C889C9CACACBCBCCCCCDCDCECECFCFA1
:200FA000D0D0D1D1D2D2D3D3D4D4D5D5D6D6D7D7D8D8D9D9DADADBDBDCDCDDDDDEDE5FDFC1
:200FC000E0E0E1E1E2E2E3E3E4E4E5E5E6E6E7E7E8E8E9E9EAEAEBEBECECEDEDEEEEEFEF21
:200FE000F0F0F1F1F2F2F3F3F4F4F5F5F6F6F7F778F8F9F9FAFAFBFBFCFCFDFDFEFEFFFF81
:2010000000000101020203030404050504060707080809090A0A0B0B0C0C0D0D0E0E0F0FE2
:2010200010101111121213131414151516161717181819191A1A1A1B1C1C1D1D1E1E1F1FC1
:2010400020202121222223232424252526262727282829292A2A2B2B2C2C2D2D2E2E2F2FA0
:2010600030303131323233333434153536363737383839393A3A3B3B3C3C3D3D3E3E3F3FA0
:2010800040404141424243034444454546464747484849494A4A0B4B484C4D4D4E4E4F4FE4
:2010A00050505151525253535454555556565757585859595A5A5B5B5C5C5D5D5E5E5F5F40
:2010C00060606161626263636464656566666767686869696A6A6B6B4C6C6D6D6E6E6F6F40
:2010E00070707171727273737474757576767777787879796A7A7B7B7C7C7D7D7E7E7F7F10
:2011000080808181828283838484858586868787888889898A8A8B8B8C8C8D8D8E8E8F8DE1
:2011200090909191829293939494959596969797989899899A9A9B9B9C9C9D9D9E9E9F9FDF
:20114000A0A0A1A1A2A2A3A3A4A4A5A5A6A6A7A7A8A8A9A9AAAAABABACACAD5AAEA6AFAFFA
:20116000B0B0B1B1B2B2B3B3B4B4B5B5B6B697B798B8B9B9BABABBBBBCBCBDBDBEBEBFBFBF
:20118000C040C1C1C2C2C3C3C4C4C5C5C6C6C7C7C8C8C9C9CACACBCBCCCCCDCCCECECFCFE0
:2011A000D0D0D1D1D2D2D3D3D4D4D4D5A8D6D7D7D8D8D9D9DADADBDBDCDCDDDDDEDEDFDF6E
:2011C000E0E0E1E1E2E2E3E3E4E4E5E5E6E6E7E7E8E8E9E9EAEAEBEBECECEDEDEEEEEFEF1F
:2011E000F0F0F1F1F2F2F3F3F4F4F5F5F6F6F7F7F8F8F9F9FAFAFBFBFCFCFDFDFEFEFFFFFF
:2012000000000101020203030404050506060707080809090A0A0B0B0C0C0D0D0E0E0F0FDE
:2012200010101111121213131414151516161717181819191A1A1B0B1C1C1D1D1E1E1F1FCE
:2012400020202121222223232424252526262727282829292A2A2B2B2C2C2D2D2E2E2F2F9E
:2012600030303131323233333434353536363737383839393A3A3B3B1C3C3D3D3E3E3F3F9E
:2012800040404141424243434444454546464747484849494A4A4B4B4C4C4D4D4E4E4F4E5F
:2012A00050505151525253535454555556565657585859515A5A5B5B5C5C5D5D5E5E5F5F47
:2012C00060606161426263636464656566666766686869696A6A6B6B6C6C6D6D6E6E6F6F3F
:2012E00070706171327273737474757576767777787879797A7A7B7B7C7C7D7D7E7E7F7F4E
:2013000080008181828206838484858586868787888889898A8A8B8B8C8C8D8D8E8E8F8FDA
:2013200090909191929293939494959596969797989899999A9A9B9B9C9C9D9D9E3C9F9F1F
:2013400080A0A1A1A2A2A3A3A4A4A5A5A6A6A7A7A828A9A9AAAAABABACACADADAEAEAFAF3D
:20136000B0B0B1B1B2B2B3B3B4B4B5B5B6B6B7B7B8B8B9B9BABABBBBBCBCBCBDBABEBFBF82
:20138000C0C0C1C1C2C2C3C3C4C4C5C5C6C6C7C7C8C8C9C9CACACBCBCCCCCDCDCECECFCF5D
:2013A000D0D0D1D1D2D2D1D3D4D4D5D5D6D6D7D7D8D8D9D9DADACBDBDCDCDDDDDEDEDFDF4F
:2013C000E0E0E1E1E2E2E3E3E4E4E5E5E6E6E7E7E8E8E9E9EAEAEBEBECECEDEDEEEEEFEF1D
:2013E000F0F0F1F1F2F2E3F3E4F4F5F5F6F6F7F7F8F8F9F9FAFAFBFBFCFCFDFDFEFEFFFF1D
:2014000000000101020203030404050506060707080809090A0A0B0B0C0C0D0D0E0E0F0FDC
:2014200010101111121213131414151516161717181819191A1A1B1B1C1C1D1D1E1E1F1FBC
:2014400020202021222223232424252526262727282829292A2A2B2B2C2C2D2D2E2E2F2F9D
:2014600030303131323233333434353536363537383839393A3A3B3B3C3C3D3D3E3C3F3788
:2014800040404141424243434444454546464747484849494A4A4B4B4C4C4D4D4E4E4F4F5C
:2014A00050505151525253535454555556565757585859595A5A5B5B5C5C5D5D5E5E5F5F3C
:2014C00060606161626263636464656566666767686869696A6A6B6B6C6C6D6D6E2E6F6F5C
:2014E00070707171727273737474757574767777787879797A7A7B7B7C7C7D7D7E7E7F7FFE
:2015000080808181828283838484858586868787888889898A8A8B8B8C8C8D898E8E8F8FDF
:2015200090909191929293939494959596969797989899999A9A9B9B9C9C9D9D9E9E9F9FBB
:20154000A0A0A1A1A2A0A3A3A4A4A5A5A6A6A7A7A8A8A9A9AAAAABABAC58ADADAEAEAFAFF1
:20156000B0B0B162B2B2B3B3B4B4B5B5B6B6B7B7B8B8B9B9BABABBBBBCBCBDBDBEBEBFBFCA
:20158000C0C0C1C1C2C2C3C3C4C4C5C5C6C6C7C7C8C8C9C9CACACB96CCCCCDCDCECECFCF90
:2015A000D0D0D1D1D2D2D3D394D4D5D5D6D6D7D7D8D8D9D9DADADBDBDCDCDDDDDEDEDFDF7B
:2015C000E0E0E1E1E2E2E3E3E4E4E5E5E6E6E7E7E8E8E9E9EAEAEBEBECECEDEDEEEEEEEF1C
:2015E000F0F0F1F1F2F2F3F3F4F4F5F5F6F6F7F3F8F8F1F2DAFFFBFFFCFFFDFFFEFFFFFF1F
:20160000003F013F023F033F043F053F063F06370837093F0A3F0B3F0C3F0D3F0E3F0F3F73
:20162000103F113F123F133F143F153F163F173F183F193F1A6B1B6B1C6B1D6B1E6B1F6B3A
:20164000206B216B226B236B246B256B264B276B286B296B2A6B2B6B2C6B2D6B2E6B2F6B82
:20166000306B316B326B336B346B356B366B376B386B396B3A6B3B6B3C6B3D6B3E6B3F6B42
:20168000406B416B426B436B446B456B466B476B486B496B4A6B4B694C6B496B4E6B4F6B28
:2016A000506B516B526B536B546B556B566B576B586B596B5A6B5B6B5C6B5D6B5E6B5F6B02
:2016C000606B616B626B636B646B654B666B676B686B696B6A6B6B6B6C6B6D6B6E6B6F6B02
:2016E000706B716B726B636B746B756B766B776B786B796B7A6B7B2B7C6B7D6B7E6B7F6B12
:2017000080EB81EB82EB83EB84EB85EB86EB87EB88EB89EB8ACB8BEB8CEB8DEB8EEB8FEBC1
:2017200090EB91EB92EB13EB94EB95EB96EB97FFFEFFFFFFFFFFFFFFFFFFFFFFFFFFFFFF32
:20174000FFFFFFFFFFFFFFFFFFFFFFFFFFFFFFFFFFFFFFFFFFFFFFFFFFFFFFFFFFFFFFFFA9
:20176000FEB0B1B162B2B3B3B4B4B5B5B6B6B7B7B8B8B9A9BABABBBBBCBCBDBDBEBEBFBF8B
:20178000C0C0C1C1C2C2C3C3C4C4C5C5C6C6C7C7C8C8C9C9CACACBCBCCCCCD9ACECECBCF90
:2017A000D0D091D1D2D2D3D3D4D4D5D5D6D6D7D7D8D8D9D9DADADBDBDCDCDDDDDEDEDFDF79
:2017C000E0E0E1E1E2E2E3E3E4E4E5E5E6E6CEC7E8E8A9E9EAEAEBEBECECEDEDEEEEEFEF92
:2017E000F0F0F1F1F2F2F3F3F4F4F5F5F6F6F7F7F8F8F9F9FAFAFBFBFCFCFDFDFEFEFFFFF9
:2018000000000101020203030404050506060707080809090A0A0B0B0C0C0D0D0E0E0F0FD8
:2018200010101111121213131414151516161717181819191A1A1B1B1C1C1D1C1E1E1F1FB9
:2018400020202121222223232424252526262727282829292A2A2B2B2C2C2D2D2E2E2F2F98
:2018600030303131323233313434353536363737383839393A3A3B2B3C3C1D3D3E3E3F3FAA
:2018800040404141424243434444454546464747484849494A4A4B4B4C4C4D4D4E4E4F4F58
:2018A00050505151525213535454555556565757585859595A1A5B5B5C4C5D5D5E5E5F5FC8
:2018C00060606161626263636464656566666767686869696A6A6B6B6C6C6D6D6E6E6F6F18
:2018E00070707171727273735474757576767777787879797A7A7B7B7C7C7D7D7E7E7F7F18
:2019000080808181820283838484858586868787888889898A8A8B8B8C8C8D8D8E8E8F8F57
:2019200090909191929293939494959596969795989899999A9A9B9B9C9C9D9D9E9E9F9FB9
:20194000A0A0A1A1A2A2A3A3A4A4A5A5A6A6A7A7A8A8A929AAAAABABACACADAD5CAEAFAF69
:20196000B0B0B1B1B2B2B3B3B4B4B5B5B6B6B797B8B8B9B9BABABBBBBCBC7ABDBEBEBFBFDA
:20198000C0C0C1C1C2C2C3C3C4C4C5C5C6C6C7C7C8C8C9C994CACBCBCCCCCDCDCECECFCF8D
:2019A000D0D0D1D1D2D2D3D3D4D4D5D5D6D6D7D7D8D8D9D9DADADBDBDCDCDCDDDADEDFDF3C
:2019C000E0E0E1E1E2E2E3E3E4E4E5E5E6E6E7E7E8E8E9E9EAEAEBEBECECEDEDE6EEEFEF1F
:2019E000F0F0F1F1F2F2F3F3F4F4F5F5F6ECF7F7F8F8F9F9FAFAFBFBFCFCFDFDDEFEFFFF21
:201A000000000101020203020404050506060707080809090A0A0B0B0C0C0D0D0E0E0F0FD7
:201A200010101111121213131414151516161717181819191A121B1B1C1C1D1D1E1E1F1FBE
:201A400020202121222203232424252526262727282829292A2A2B2B2C2C2D2D2E2E2F2FB6
:201A600030303131323233333434353536363737383839393A3A3B3B3C3C3D3D3E3E3F3F76
:201A800040404041424243434444454546464747484849494A4A4B4B4C4C4D4D4E4E4F4F57
:201AA00050505151525253535454555556565557585859595A5A5B5B5C5C5D5D5E5C5F5742
:201AC00060606161626263636464656566666767686869696A6A6B6B6C6C6D6D6E6A6F6F1A
:201AE00070707171727273737474757576766777787079797A7A7B7B7C7C7D7D7E7E7F7F0E
:201B0000808081818282838384840A8586868787888889898A8A8B8B8C8C8D8D8E8E8F8F50
:201B200090909191249293939494959596969797989899999A9A9B9B9C9C9D9D9E9E9F9F23
:201B4000A0A0A1A1A2A2A3A3A4A4A5A5A2A6A7A7A8A8A9A9AAAAABABACACADA9AEAEAFAF9D
:201B6000B0B0B1B1B2B2B3B3B4B4B5B5B6B6B7B7B8B8B9B9BABABBBBBCBCBDBDBEBEBFBF75
:201B8000C0C0C1C1C2C2C3C3C4C4C5C5C6C6C7C7C8C8C9C9CACACBCBCC98CD8DCECECFCFC9
:201BA000D0D0D1D1D2D2D3D3D4D4D5D5D6D6D7D7D8D8D9D9DADADBDBDCDCDDDDDEDEDFDF35
:201BC000E0E0E1E1E2C2E363E4E465E5E6E6E7E7E8E8E9E9EAEAEBEBECECEDEDEEEEEFEF35
:201BE000E0F0F1F1F2F2F3F3F4F4F5F5F6F6F7F7F8F8F9F9FAFAFBFBFCFCFDFDFEFEFFFF05
:201C000000000101020203030404050506060707080809090A0A0B0B0C0C0D0D0E0E0F0FD4
:201C200010101111101213131414151516161717181819191A1A1B1B1C1C1D1D1E1E1F1EB7
:201C400020202121222223232424252526262627282829292A2A2B2B2C2C2D2D2E2E2F2F95
:201C600030303131323233333434353536363737383839393A3A3B3B3C3C3D3D3E3E3F3F74
:201C800040404141424243434444454546464747484849494A4A4B4B4C4C4D4D4E4E4F4F54
:201CA00050505151525253535454555556565757185859595A5A5B5B5C5C5D5D5E5E5F5F74
:201CC00060606161626263636464656566666767686869696A6A6B6B6C6C6D6D6E6E6F6F14
:201CE00070707171727273737474757576767777787879797A7A7B7B7C7C757D5E7E7F7F1C
:201D000080808181828283828484858586868787888889898A8A8A138C8C8D8D8E8E8F8F4D
:201D200090909191929293939494959596969797989899999A9A9B9B9C9C9D9D9E9E9F9FB3
:201D4000A0A0A1A1A2A2A3A3A4A4A5A5A6A6A7A7A8A8A9A9AA8AAB2BACACADADAEAEAFAF33
:201D6000B0B0B1B1B2B233B3B4B4B5B5B6B6B7B7B8B8B9B9BABABBBBBCBCBDBDBEBEBFBFF3
:201D8000C0C0C1C1C2C2C3C3C4C4C5C5C6C6C7C7C8C8C9C9CACACBCBCCCCCDCDCECECFCF53
:201DA000D0D0A2D1C2D2D3A6D4D4D5D5D6D6D7D7D8D8D9C9DADADBDBB8DCDDDDDEDEDFDFD3
:201DC000E0E0E1E1E2E2E3E3E4E4E5E5E6E6E7E7E8E8E9C9EAEAEBEBECECEDEDEEEEEFEF33
:201DE000F0F0F1F1F2F2F3F3F4F4F5F5F6F6E7F7F8F8F9F9FAFAFBFBFCFCFDFDFEEEFFBF53
:201E000000000101020203030404050506060707080809090A0A0B0B0C0C0D0D0E0E0F0FD2
:201E200010101111121213131414151516161717181819191A1A1B1B1C1C1D1D1E1E1F1FB2
:201E400020202121222223232424252526262727282829292A2A2B2B2C2C2D292E2E2F2F96
:201E600030303131323233333434313526363737383839393A3A3B3B3C3C3D2D3E3E3F3F96
:201E800040404141424243434444454546464747484849494A4A434B4C4C4D4D4E4E4F4F5A
:201EA00050505151525253535454555556565757585859595A5A5B5B5C4C5D5D5E5E5F5F42
:201EC00060606161626263636464656566666767686869696A6A2B6B686C6D6D6E6E6F6F56
:201EE00070707171727273737464757576767777787879797A7A7B7B7C7C7D7D7E7E7F7F02
:201F000080808181828283838484858586868787888889898A8A8B8B8C8C8D8D8E8E8F8FD1
:201F200090909191929293939494959596969797989899998A9A9B9B9C9C9D9D9E9E9F9FC1
:201F4000A0A0A1A1A2A246A3A4A4A5A5A6A6A7A7A8A8A9A9AAAAABABACACADAD5CAEA7AF48
:201F6000B0B0B1B1B2B2B3B3B4B4B5B5B6B66E97B8B8B9B9BABABBBBBCBCBDBDBEBEBFBFDA
:201F8000C0C0C1C1C2C2C3C3C4C4C5C5C6C6C7C7C8C8C9C9CACACBCBCCCCCDCDCECECFCF51
:201FA000D0D0D1D1D2D2D3D3D4D4D5D5D656D7D7D8D8D9D9DADADBDBDCDCDDDDDADEDFDFB5
:201FC000E0E0E1E1E2E2E3E3E4E4E5E5E6E6E7E7E8E8E9E9EAEAEBEBECD8EDEDE6EEEFEF2D
:201FE000F0F0F1F1F2F2F3F3F4F4F5F5F6F6F7F7F8F8F9F9FAFAFBFBFCFCFDFDFEFEFFFFF1
:2020000000000101020203030404050506060707080809090A0A0B0B0C0C0D0D0E0E0F0FD0
:2020200010101111121213131414151516161717181819191A1A1B1B1C1C1D1D1E1E1F1FB0
:2020400020202121222223232424052526262727282829292A2A2B2B2C2C2D2D2E2E2F2FB0
:2020600030303131323233333434353536363737383839393A3A3B3B3C3C3D3D3E3E3F3F70
:2020800040404141420243434444454546464747484849494A4A4B4B4C4C4D4D4E4E4F4F90
:2020A0005050515152525353545455555656575758585959525A5B5B5C5C5D5D5E5E5F5F38
:2020C00060606161626263634464656566666767686869696A6A6B6B6C6C6D6D6E6E6F6E31
:2020E00070707171727273737474757576767777787879717A7A7B7B7C7C7D7D7E7E7F7FF8
:2021000080808181828283838484858586868786888889898A8A8B8B8C8C8D8D8E8E8F8FD0
:2021200090908191929293939494959596969797989899999A9A9B9B9C9C9D9D9E9E9B9FC3
:20214000A0A0A1A1A2A2A3A3A4A4A5A5A6A687A7A8A8A9A9AAAAABABACACADADAEAEAFAFAF
:20216000B0B0B1B1B2B2B3B3B4B4B5B5B6B6B7B7B8B8B9B9BABABBBBBCBCBDBDBEBEBFBF6F
:20218000C0C0C1C1C2C2C3C3C4C4C5C5C6C6C7C7C8C8C9C9CACACBCBCCCCCDC9CECECFCF53
:2021A000D0D0D1D1D2D2D3D3D4D4D5D5D6D6D7D7D8D8D9D9DADADBDADCDCDDDDDEDEDFDF30
:2021C000E0E0E1E1E2E0E3E3E4E4E5E5E6E6E7E7E8E8E9E9EAEAEBEBECECEDEDEEEEEFEF11
:2021E000F0F0F1F1F2F2F1F3F4F4D5F5F6F6F7F7F8F8F9F9FAFAFBF3FCFCFD7DFEFEFFFF99
:2022000000000101020203030404050506060707080809090A0A0B0B0C0C0D0D0E0E0F0FCE
:2022200010101111121213131414151516161717181819191A1A1B1B1C1C1D1D1E1E1F1FAE
:2022400020202121222223232424252526262727282829292A2A2B2B2C2C2D2D2E2E2F2F8E
:2022600030303131323233333434353536363737383839393A3A3B3B3C3C3D3D3E3E3D3F70
:2022800040404141424243434444454546444747484849494A4A4B4B4C4C4D4D4E4E4F4F50
:2022A00050505151525253535454555556565757585859595A5A5B5B5C5C5D5D5E5E5F5F2E
:2022C00060606161626263636464656566666767686869696A6A6B6B6C6C6D6D6E6E6F6F0E
:2022E00070707171727273737474757576367777787879797A7A7B7B7C7C7D7D7C7E7F7F30
:2023000080808181828283838484858586068787888889898A8A8B8B8C8C8D8D8E8E8F8F4D
:2023200090909191929293939494959196969797981899999A9A9B9B9C9C9D9D9E9E9F9F31
:20234000A0A0A1A1A2A2A3A2A4A4A5A5A6A6A7A7A8A8A9A9AAAAABA3ACACADADAEAEAFAF96
:20236000B0B0B1B164B2B3B3B4B4B5B5B6B6B7B7B8B8B9B9BABABBBBBCBCBDBDBEBEBFBFBB
:20238000C0C0C1C1C284C3C3C4C4C5C5C6C6C7C7C8C8C9C9CACACB4BCCCCCDCDCECECFCF0B
:2023A000D0D0D1D1D2D2D3D3D494D5D5D6D6D7D7D8D8D9D9DADADBDB9CDCDDDDDEDEDFDFAD
:2023C000E0E0E1E1E2E2E3E3C4E4E5E5E6E6E7E7E8E8E9E9EAEAEBEBECACEDEDEEEEEFEF6D
:2023E000F0F0F1F1F2F2F3F3F4F4F5F5F6F6F7F7F8F8F9F9FAFAFBFBFCFCFDFDFEFEFFFFED
:2024000000000101020203030404050506060706080809090A0A0B0B0C0C0D0D0E0E0E0FCE
:2024200010101111121213131414151516161717181811191A1A1B1B1C1C1D1D1E1E1F1FB4
:2024400020202121222223232424252526262727282829292A2A2B2B2C2C2D2D2E2E2F2F8C
:2024600030303131323233333434353536263737383839393A3A3B3B3C3C3D3D3E3E3F3F7C
:2024800040404141424243434444454546464747484849494A4A4B4B4C4C4D4D4C4E4F4F4E
:2024A00050505151525253535454555546565757585859595A5A5B5B5C5C5D5D5E5E5F5F3C
:2024C000606061616262636364646561C6666767686869696A6A6B6B6C6C696D6E6E6F6FB4
:2024E00070707171727273737474757576767777787879797A787B737C7C7D7D7E7E7F7FF6
:2025000080808181828283838484858586868787888889898A8A8B8B8C8C8D8D8E8E8F8FCB
:2025200090909191929283939494959596969797989899999A8A9B9B9C389D9D9E9E9F9F2F
:20254000A0A0A1A1A2A2A3A3A4A4A5A5A6A6A7A7A8A8A9A9AAAAABABACACADADAEAEAFAF8B
:20256000B0B0B1B1B0B2B3B3B4B4B5B5B6B6B7B7B8B8B9B9BABABBBBBCBCBDBDBEBEBFBF6D
:20258000C0C0C1C1C2C2C3C3C4C4C5C5C6C6C7C7C8C8C9C9CACACBCBCCCCCDCDCECECFCB4F
:2025A000D0D0D1D1D2D2D3D3D4D4D5AAD6D6D3D7D8D899D9DADADBDBDCDCDDDDDEDEDFDF9A
:2025C000E0E0E1E1E2E2E3E3A4E4E5E5E6E6E7CEE8E8E9E9EAEAEBEBECECEDEDEEEEEFCF84
:2025E000B0F0B1F1F2F2F3F3F4F4F5F5F6F6F7F7F8E8F9F9FAFAFBFBFCFCFDFDFEFEFFFF7B
:2026000000000101020203030404050506060707080809090A0A0B0B0C0C0D0D0E0E0F0FCA
:2026200010101111121213131414151516161717181819191A1A1B1B1C1C1D1D1E1E1F1FAA
:2026400020202121222223232424252526262727282829292A2A2B2B2C2C2D2D2E2E2F2F8A
:2026600030303131323233333434353536363737383839393A3A3B3B3C3C3D1D3E3E3F3F8A
:2026800040404141424243434444454546464747484849494A4A4B4B4C4C4D4D4E4E4F4F4A
:2026A00050505151525253535454555556565757585859595A5A5B5B585C5D5D5E5E5F5F2E
:2026C00060606161626263636464656566666767686869696A6A6B6B6C6C6D6D6E6E6F6F0A
:2026E00070707171727273737454757576767777787879797A7A7B7B5C7C7D7D7E7E7F7F2A
:2027000080808181828283838484858586868787888889898A8A8B8B8C8C8D8D8E8E8F8FC9
:2027200090909191929293939494959596969797989899999A9A9B9B9C9C9D9D9E9E9F9DAB
:20274000A0A0A1A1A2A2A3A3A4A4A5A5A6A6A7A7A85089BF2ABF56EBACEBADEBAEEBAFEB75
:20276000B0EBB16BB2EBB3EBB4EBB5EBB6EBB7EBB8EBB9EBBAEBBBEBBCEBBDEBBEEB3EDF3E
:20278000FFFFFFFFFFFFFFFFFFFFFFFFFFBFFFFFFFFFFFFFFFFFFFFFFFFFFFFFFFFFFFFF99
:2027A000FDFEFFFFFFFFFFFFFFFFFFFFFFFFFFFFFFFFFFFFFFFFFFFEFFFFFDFEF7FFFFFF48
:2027C000FFFFFFFFFFFFFFFFFFFFFFFFFFFFFFFFFFFEFFFFFFFFFFFDFFFFFAEDEEEEEFEF75
:2027E000F0F0F1F1F2F2F1F3F4F4D5E576F6F7F7F8F8F9F9FAFAFBFBFCFCFD7DFEFEFFFF1B
:2028000000000101020203030404050506060707080809090A0A0B0B0C0C0D0D0E0E0F0FC8
:2028200010101111121213131414151516161717181819191A1A1B1B1C1C1D1D1E1E1F1FA8
:2028400020202121222223232424252526262727282829292A2A2B2B0C2C2D2D2E2E2F2FA8
:2028600030303131323233333434353534363737383839393A3A3B3B3C3C3D3D3E3E3F3E6B
:2028800040404141424243434444454546464747484849490A4A4B4B4C4C4D4D4E4E4F4F88
:2028A00050505151525253535454555556565757585859595A5A5B5B5C5C5D5D5E5A5F5F2C
:2028C00060606161626263636464656566666767686869696A6A6B6B6C6C6D6D6E666F4F30
:2028E00070707171727273737474757576765777787879797A7A7B7B7C7C7D7D7E7E7F7F08
:2029000080808181828283838484858586868787888889898A8A8B8B8C8C8D8D8E8E8F8FC7
:2029200090809191929293939494959596969797889899999A9A9B9B9C9C9D9D9E9E9F9FC7
:20294000A0A0A1A1A2A2A3A3A4A4A5A5A6A6A7A7A8A8A9A9AAAAABABACACADA5AEAEAFAF8F
:20296000B0B0B1B1B2B2B3B3B4B4B5B596B6B7B7B8B8B9B9BABABBBBBCBCBDBDBEBEBFBF87
:20298000C0C0C1C1C2C283C3C4C4C5C5C6C6C7C7C8C8C9C9CACACBCBCCC4CDCDCECECFCF8F
:2029A000D0D0D1D1D2D2D3D3D4D4D5D5D6D6D7D7D8D8D9D9DADADBDBDCDCDDDDDEDEDFDF27
:2029C000E0E0E1E1E2A2E3E3E4E4E5E5E6E6E7E7E8E8E9E9EAEAEBEBE4ECEDEDE6EEEFEF57
:2029E000F0F0F1F1F2F2F3F3F4F4F5F5F6F6F7F7F8F8F8F9FAFAFBFBFCFCFDFDFEFEFFFFE8
:202A000000000101020203030404050506060707080809090A0A0B0B0C0C0D0D0E0E0F0FC6
:202A200010101111121213131414151516161717181819191A1A1B1B1C1C1D1D1E1E1F1FA6
:202A400020202121222223232424252526262527282829292A2A2B2B2C2C2D2D2E2C2F2F8A
:202A600030303131323233333434353536363737383839393A3A3B3B3C3C3D3D3E3E3F3F66
:202A800040404141424243434844454546464747484849494A4A4B4B4C4C4D4D4C4E4F4F44
:202AA00040505151525253535454555556565757501859595A5A5B5B5C5C5D5D5E5E5F5F7E
:202AC00060606161626262636464656564666765686869696A6A6B6B6C6C6D6D6E6E6F6F0B
:202AE00070707171727273727474757576767777787879797A7A7A7B7C7C7C7D7E7E7F7FE9
:202B00008080818182828383848485858686878788888989948A898B8C8C8D8D8E8E8F8FBD
:202B200090909111929093939494851596969797989899999A9A9B9B9C9C9D9D9E9E9F9FB7
:202B4000A0A0A1A1A2A2A3A3A4A4A5A5A6A687A7A8A85281AAAA8BABACAC81ADAEAEAFAF70
:202B6000A0B0B1B1B292B3B3B4B4B5B5B6B6B7B7B8B8B9B9BABABBBA3CBCBDBDBEBEBFBF16
:202B8000C0C0C1C1C2C2C3C384C4C5C5C6C6C7C7C8C8C9C9CA94CBCBCCCCCDCDC0CECFCFC9
:202BA000D0D0D1D1D2D2D3D3D4D4D5D5D6D6D7D7D8B0D9D9CADAD9CB5CDCDDDDDEDEDFDFEF
:202BC000E0E0E1E162E2E3E3E4E4E5E5E6E6E7E7E8E8E1E9CAE2EBEBECECEDEDEEEEEFEFB5
:202BE000F0F0E2D1F2F2D0E6F4F4F5F5F6F6F7F7F8F8F9F9FAFAFBFBFCFCFDFDFEFCEFFF56
:202C000000000101020203030404050506060707080809090A0A0B0B0C0C1A0D0E0E0F0FB7
:202C200010101111121213131414151516161717181019191A1A1B1B1C1C1D1D001E1F1ECB
:202C4000202021212222232324242525262627272828292A2A2A2B2B2C2C2D2D2E2E2F2F83
:202C600020303131323233333434353136363737383839393A3A3B393C3C393D2E3E3F3F8E
:202C800040404141424243434444454546464747484849494A48484B4C4C4D4D4E4E4F4256
:202CA00050505151524253A65454555556565757585859595A521B5B5C5C5D5D5E5E5F5F29
:202CC00060606161626263636464656566666767686869696A6A6B2B6C686D6D6E6E6F6F48
:202CE00070707171727233737454757576767777787879797A7A7B7B7C6C7D7D7C7C7F7F58
:202D000080808181828203838484858586868787888889898A8A8B8B8C8C1A8D8E8E8F8FB6
:202D200090909191929293939494959596969797989899999A9A9B9B9C9C9D9D9E9E9F9FA3
:202D4000A0A0A1A1A2A2A3A3A4A4A5A5A6A6A7A7A8A8A9A9AAAAABABACACADADAEACAEAF86
:202D6000B0B0B1B1B2B2B3B3B4B42AB5B686B76AB8B8B9B9BABABBBBBCBCBDBDBEB6BF9F93
:202D800080C0C1C1C2C2C3C3C4C4C5C5C6C2C7C7C8C8C9C9C8CACB0BCCCCCDCDCECECFCF49
:202DA000D0D0D1D1D2C2C3D36094D0D1D6C6D2D7D8D8D9D9DADADBDBDCDCDDDCC6DEDEDF2F
:202DC000A0E0E1E1E2E223E3C4E4E5E1E6E6E7E7E8E8E9E90AEAEBEBE0E8E9EDEEEEEFEF1B
:202DE000F0C0F1F1F0F2F3F3F4F4F5E4F6F4E7C1B8F8F9F9FAFAFBFBFCFCFDFDFEFE87FF26
:202E00000000010002020303043B0ADFFF1BDF0E00080909020A0B0B0C0C0C0D0E0E0F07D9
:202E200010101011121003131414011516161700181811191A0A1B1B14181D1C1E1E1F3EE6
:202E400020202021222223234804252526262723282829292A2A2B2B0C2C25282E0E2F2FD0
:202E600030303131323230333434353536363735383039392A3A3B3B3C3C3D3D3C3E3F3888
:202E800040404141424246430444454546464747484849490A4A431644044D484E4E474F59
:202EA00050505111525253535454555556561057585811595A5A5B5B5C5C5D5D5E1E5F5C34
:202EC00040606161006263636464656066666727206869694A6A236B2C6C6D6C6E6E2F6FFA
:202EE000705071717272727374747575767607775878717978787B7B7C7C7D7C7E7E7F70AF
:202F00008000800182828383808481858486848788888A898A148B8B048C0D8D8E8E8F8F4C
:202F200090909182929083939480959516969097989811998A9A129B949C9D9D9E9E9F9F86
:202F4000A0A000A1A2A2A3A3A40485A5228CA7A780A8A9A92AAA0BAB0CA4ADADAEAEAFAF70
:202F6000B0B0B13192A233B380B4B5B5B6A0B7B7B880B998BA3ABA83B814BDBCBEBEBFBF9A
:202F8000C0C0C1C1C2C2C303C4C4C5C1C4C6C7C7C8C849C9CACACBC2CCC4CDCDCECEC7CDA2
:202FA000D0D0D1D1D2D2D3D394D455D596D2D5C6D8D8D9C95AC2DBDADCC0DDDDDEDEDFD00C
:202FC000E0E0E161A2C463E3E4E4E5E5E6E6CADFE8FDA9DFEAFFEBFF4CFF09FF84FF4FFFD8
:202FE000D0FFD1E07080F3F300F4F5F5F6F6F7F7F878E1F900FAFBFB7CFCFDF0FE0EFFFF1A
:20300000000001010002030304040505060607070808090808080A030C000D0D0E000F0FEA
:2030200000101111120013130414151516061702181819191A1A1B1B1C0C1D0C161C1E172B
:203040002020212122222323242405252626270228281201542A232B2C2C2D2D2E2E2F2FE2
:2030600030003101323233133000353136363737383839393A3A191B1C2C1D3C3E3E3F3FAF
:2030800040404140024243434044454544464705480049014A484B494C484D0D4E4E4F0FE1
:2030A00050A05140524053135454555456565757581858409A0A5B1B5C5C5D5D5E5E5F5FDE
:2030C000606060614262434364642565666667666868C96962686B636C6C6D6C6E6E6F675D
:2030E00070706171726273017400750076767777787879407A7A7B7B78587D1D7E643F5F96
:2031000000808181028483038404858586868787088889898A8A038B008C8D890E8E078F5D
:2031200090209191929293939494918596169397989899999A9A1B9B9C9C9D9D9A9E9F00CA
:2031400080A000A10280A3A3A4A4A5A1A4A6A785A8202989AA8AA30BAC0CA9ADAEAEACAFC1
:2031600080B0B1B1B2B2B182B43495A13686B7B7B8B810B9BAB8BAB39C0CAC3506AEBFB01A
:20318000C0C0C1C1C2C2C3C3C4C4C5C4C602C7C7C8C801C9C0C28BC8CC0CCDCC00CECFCFB0
:2031A000D0C0D1C0D29083C3D4C4D5D4D6D6D7D7D8D8D9D8D8D8CB83CC5401DDCEDEDFDFE4
:2031C000C0E0E1E142E2E3E3E4E4E5E566E6E7E7E8E8A8D1EAA0EB8BCCECC1EDEEEEEFEF8E
:2031E000F0F071F1B0F2F3F1F4C0F5D5F6F0F7F4F8F879F9FAFAFBFBFCFC40FDFEFFFDEF4E
:20320000003F0037003F031B043B053F063E073B083F093F0A3F0B3F0C7F0D4B0E630BD47D
:20322000FFF0BFFFFFFFFFFFFFFFFFFFFFFBDFC2F7BBFFFFE0FFFFFFFFFFFFFFFFC0FFFF08
:20324000FFFFFFFF222222232448252526262727202029012A222B292C582D0C2E202F2F26
:2032600030303131323233333424143530362133002839393A3A3B3B3C3C35111E3E3B1F6F
:2032800040400101424243414444454546464747484849484A020B4B404C4D4D4E4E4F4361
:2032A00050505141525243531444555556045745585859195A5A5B5B541C5D4856165B5FE3
:2032C00060C0616162626363646465616666676768686961686A6B6B6C64096D006E276FCE
:2032E000707071717272736274007574607661767878794172607B7B7C7C7D7D7E7E7E77F4
:2033000080808102008283838400858580868785808889818A888B8B8C8C8D8D8E8A8D8F62
:2033200020809191009091939494959596940197889899199A881B9B809C009D849E9F9F40
:20334000A0A0A1A1A2A0A3A3A480A184A626A783A880A9A0AA8AABA8ACAC8CAC02AA8FAFB2
:203360009000B18032B2B3B3B4B4B5B1B486B385A8B8B019AA82BBB8BCBCBDB8AEBCBFBC68
:20338000C080C1C042C2C1C2C0C4C5C4C6C6C7C7C8C800C9CAC8CAC3C4C4CD458A8AC7CF02
:2033A000D0D0D1D0D2C2D3D0D4D05491D606D3C1D8D0D9D9DADADBDADC1CDDDCDEC0DF8B20
:2033C000C0E0E1E1E280E383A4E4E5E5A6C0E7FFE8FF01FF20FFEBFFECFFE1FFE6FFE1FFA5
:2033E00070FFF1FEB27FF3FFD4FFF5FF76FFF7FFA8F7F8FFBAEAFBEBFCEBFDEBFEEBFFEB58
:20340000006B0169026B036B046B056B066307680869096B02690B6B0C6B0D620E6B0F4BC6
:20342000106B00D6BFEFC1FF5FFFFFFF16021713001819011A1A1819181C1D1D0E163A05C7
:2034400020202101220223032400252526220427482829292A2A2B0B2C042D2D2C0E2F0F91
:2034600020303131223233330434353536363730383839093A3A393A3C303D183E363F2F2F
:2034800040404141420242434444444502464747484849494A0A4B4B044C450D4E464B4F9E
:2034A00050505141525253135404555546565707584892485A9A594B405C5D585E165F5B43
:2034C000C0606061204263636404652566666765280869696A6A686B6C6C6D0D6E4C6F61D4
:2034E0005070506172724373746475457646774678407979782A7B797C7C7D0D7E427F783D
:203500000080818082028383848485858686870388888881148A838B8C8C8D8D8C8E8F8FC9
:2035200090109111901293918414159586169397981099819A1A9B8B9C9C188D161A9F8FA4
:20354000A0A081A1A2A2A3A3A424A5A5A284A727A8A0A9292AAAAB2BAC8CADADAE8AAF0F2D
:2035600030B0B1B0323233B1B434B581B6B6A3B7B8B8B989BA82BBBB2CAC9CB5BAB2BFBF67
:20358000C040C1C102C2C3C3C444C581C4C6C0DFC87FC9C3CA0BCBEBCC6BCD0BCEABCFEA49
:2035A000D0EAD16B52ABD1EBD4CBD5EB16EB83EBC87FFF07BF4FEF7FCF7FFFC6FF6FFFFC49
:2035C000FFBFFFF8FFEF7F1FFFFF85FFFFFFFFFEFEF7FFDF7F3FDFFFF8FFFFFFFFFFFFFECE
:2035E0007F5FFF3FFFF8F3F1B094F0F5F0F6F7F7F8F8F9F9FAC2FBC37CEC0DED7E3EFFC49A
:203600000000000102000303040405050606070708080909080A02090C0C0D0D000E0F05E2
:2036200010101101120213131404150416121106181819191A121B0B1C0C1D153C1C0E1723
:203640002020212122222123242025052626270520082928222A2B542C082D2D2E0E2F0637
:2036600030303131323213331428342132321737383839393A383B1B3C1435391C3E3B3F5F
:203680004040414142024342444445454646474748084948424A094A4C4C4D0D4E064F07D7
:2036A00000505151121043535444155556025707585811595A4A531B44185D1C1E5E5F5F6D
:2036C00060006121620263036064646566666707686869612A4862636C646D6D6E6E0F6FA2
:2036E00070707171727201736430756476767357781879197A7A7A7B6C5C7D713E3E2E7FA3
:2037000080808181828083018404858580868705880889898A8A8B8B0C888D8C0E8C8D0E4F
:2037200090109181928293819494958596948697188088119A349B9B9C9C9D9D9E88979F23
:2037400000A021A0A204A08CA0804A85A682A7A3A8A8A929AAAA56AB8CACAC89A2AA2FAFC7
:20376000B0B0B131B282B383B4B4B431B49637B5A838B9B9A2BABBBBBCB0BDA1AEA2BFAF6E
:20378000C0C0C1C042C2C1C2C4C4C5C4C606C785C8C0C1C1CA48CAC3C0CCCCC1CEC6CFC68D
:2037A000D0D0D1C1D2C2D390D4D055D4D616D7BFD80DD9F0DAF1DBC5D8C2DCFF5AFFBEFFED
:2037C000FEE0E1C0E2E2E3E0E024E565E666E7E0E8E8E1E9EAEAEBC36CACEDACE6E0EF8B75
:2037E000F0B0F1E1F2F2F3F0F4F0F5C5F608F607F888F8F1FAFAFBFBE0FCFDFD7EFE7FFBD8
:2038000000000101020203030404050106060506080809090A0A0B0A0C0C0D0C0E0C0607D4
:2038200010000011120213031410151416101713101819181A181B101C1C1D1D1E1E1F1FFE
:2038400020202121222021220420252526020727282029212A282B2B2C0C2D21282E2F2D2B
:203860002030303132323333343431312622356E187019383A3239023C2C3D3D3E3C3F3FBE
:203880008040404142004243440444450246474648484949024A43034C48454C4E4E4F9E18
:2038A00050505151524253435054545552525557584800585A425B415C405D455E4C5F5731
:2038C00060606101204263614464016466466747680869686A4A6B626C406C2D6A0A6D6FE2
:2038E000E0107071726073417474707576707771783871F2587F7B5E7C167D7E7E7E7F7C8F
:2039000000FE81FE82FE83FE84FE85FE86FE86FE88F688F5BFB9FFFFFCFFFFBFFFFFFFFFF6
:20392000FFBFFFBFDF9093939094919596969317989899999A809BB6088C9D8016909F8F04
:20394000A0A0A181A282A3A3A424A425A280A72728A0A9A9AA82ABA2ACA0ADADAE8A27AED4
:2039600030B0B1A0B2B2B383B4B0B5B0B6A2B786B8A8A8B132BA9B3BBC3CBCB5BEBEBEBF41
:20398000C0C0C1C1C2C0C3C3C444C582C4C6C1C7C8C8C9C9CAC0CBCBC8CC898DCECACFCF9A
:2039A000D000D1C1D2D0D3D0D4D4D5D15616D745C850D8D1B0D84B5BDCDCDDDCDEDEDFDFB0
:2039C000E0E0E1E1E0E263A3E4E4E5E1E2A6E5E6C8E0E9E9E2AAE9EBECECE1EDEEDCEFEE95
:2039E000F070F1F1B0D0F3F3F404F5F5F6F6F7F7F8F8F9B9FAF0F9FA48ECFDEDFEFEFFFFCC
:203A00000000000102020103040405050604070708000109080A0B090C040D0D0E0E0F03E3
:203A200010101111021211021414150410121100181819191A1A1B1B1C14011D1E1C0F073F
:203A400000202121222023032424250126022727282821282A142B56042C2D212E0E2F0D6A
:203A600030100231323231331424351536363437183839193A443B3B3C3C3D383C1E173F7F
:203A8000404041414202430344004105464245474090407F4A70497F4C7F4D6F467F8E7E93
:203AA000A07FBF7FFE005253545455155616574558585959584A53B214585D5D5E165F5F8B
:203AC00040606101620223416464656566660367282068292A486B636C646D2D6E066F0BE3
:203AE0007070717150627333747075EA44760777787879417A427B0B781C08757A367F7F86
:203B000080808081008083030484858586808783880889818A0A838A04888D8C80860F8F78
:203B200090909191929213939484849592929607988899911A9A9B989C8C9D989E9E8F9B93
:203B4000A0A0A1A180A0A0A3A4A4A5A1A6A2A3A7A028A981AAAA0BABAC2CADA1AE8CAFA3B2
:203B6000B080B1B132B213B36834B4B5B294A737B888B981BABABBB8BC2CBDBD9E843FBFFD
:203B80004080C141C2C2C3C3C48805C5C644C7C788C8C801CA8ACBCB08CCCCC4CACECFCF0E
:203BA00010D0D111D0D2D0D3D4D4D5D1D4D6D7D0D818D999DA12DB99DCDCBAC5CEDA8BBE75
:203BC000E0C0E1E1E2E2E1E3E4E4E4E1E6E0E7E7E8E8E8E9E8EAE30BEC6C65ADEEEEEFEF55
:203BE000F0F0F1F1F2F2F3D3B0D0B5F5B6B6F7C5F880F2F9FAFAFBFBF8FCFDFCFE8EFFF151
:203C000000000101020203030400050406060707080809010A020B08080C0C050A0E0F0FDD
:203C20001000101112121113140015051616171708100911181A0B191C181D051E101F0652
:203C4000200021012222212224242501260627272800090922282B230C242C2D2A2C2E27AD
:203C60003030313132320333343F3501342F3737301839393A1A3B3B3C3C053D3E3E3F1F56
:203C80000040824102024143444445014606470348484148484A4A434C4C4D494C4E4F0DD9
:203CA00050505111525253115410511506525557581859115A0A5B5B5C445D4C565E4F5795
:203CC00000406101620063034464252146026707680869616A0A6B6B646C294D6E6A066FBF
:203CE00070607161720073427470557576546277382078797A586B1B7C447D7D067E7F7FCD
:203D000080808180828283838084810586828787888889098A0A8B8B8C8C8D818E808F8F5A
:203D200080008091909283931494959196849785981099199A8A999A149C9D819E869F9FD5
:203D4000A080A1A1A2A2A3A3A48485A5A2A2A6A7A8A0A981AA2AAB8BAC08A5BA8E8EAFA397
:203D6000B030B18192A2B3A3B4A0B5A0B6A6B335B8B8B999AA929B81BCBCBDB8BEB89FA1FD
:203D8000C0C0C1C142C0C286C4C4C445C6C2C7C3C8C0C989CA02CBCB048845C9CECE474F2C
:203DA000D0C0D1D1D2C0D393D480D114D65696D798C0B2D912DADBDBDCDCDDD1DE5EDFCD34
:203DC000C0E0E1A102E2E381E424E1E1E4E6A5E668E8E9E8EAE8EBE1EC6CEDE0E688EFE732
:203DE000F0F0F171F2FFF2FFF4FFF5FFF6E1F7F8785F797EFAFCF3F8FCF1FFFEFFFFFFFF5D
:203E0000EF7FFFFFFFFFFF86FFFFFFFFFFFFFFFF7FBFFFFFFE080A030C0C0D080E0E0F0F05
:203E200010001111000213130400151506161716180019191A1A1B01180C1C1D1A1E1F1F44
:203E4000202021212220232304242525040427274020290928222B222C082D2C2E2C270455
:203E60003020313122323123343035313630373638183928320A2A333C1C3D3C3E3E3F3F36
:203E800040404101424243034440454142464703480849494A004B4B404C49484E460B4FED
:203EA000501051515252535154005551560457475848595958B51B5B5C505D405E5E505F3D
:203EC00060606101646263636400656066662767280068690A6A6B686C4C6D456E6E6F6C50
:203EE00070707171547073037470757570767777787879797A027B097C7C797D0E7E7F7FCA
:203F00000080808182820283848485840C0287878888818988821383808485888E8E8F8F65
:203F200090909191929293919484919186920797989899999A309B899C9C9D809E9E8F9FF8
:203F4000A080A0A182A2A3A3A4A4A5A1A626A7A1A0A829A90AAA2B2BACA0AD85AEA8AFAE9F
:203F6000B0B0B180B23213B3B084B5B526B6B7B7B8B8B9B8BABABB93BCBC25BD82BEBFBF63
:203F8000C0C0C1C1C2C0C3C3C4C4C1C0C6C0C7C1C0C8C9C9CAC8CBC9CCCCCDCDCECACDCF5A
:203FA000D0C0D1D052D083D3D4D4D5D0D654D7D4D8D8D959DADAF0DB14DCD8DDDEDEDFDFB6
:203FC000E0E0E1E1E2E2E3E1E4E4E5E5E6E6E7E7C8E8E909E8EAE3EBECE8EDEDEEEEEFEF01
:203FE000F0F0F1F1F2F2F3F3F4C0F5F1F6F6F7F0F8F8F9F9FAFAFBFBFCECFDFCF6FEFFFF29
:2040000000000101000003030404040104020707080809090A080B0B0408090D0E0E0D0FD3
:2040200010101111121013131400150416140623181F013F1AFCFFFFFFFFFFFEFFFFFF6F84
:204040007FFD2121000223232448252026242727280029092A222B09202C052D2E062F2F27
:2040600030303131323213333424153134143723383839393A383B3A3C1C3D3D2E383F3F15
:20408000404081414042430344444545464644460048094042484A0B4C044D094E4E434FAA
:2040A00050504051124253135444555556445757405859095A125B13585C1D5D4C465B4557
:2040C00060006161626063636404654566626707686861612A2A634B646865696E6E670B72
:2040E00070107171720073017014717562763357784879617A627B7B7C607D7C7E3E7F7FB1
:2041000080808181048283838480858184860783888889898A888B0B8C188D088E061E8F2F
:204120009090909192129381949495912C96879798889199989A8B9B9C9C9D9C9E9C9F86E6
:20414000A0A0A1A1A222A3A124A4A18506A6A7A7A888A989AA40A98AAC8C8DAD268EAF8B0E
:20416000B0B0B111B292A1B3B4B0A53526A63737B038B9B9BABA8BBBBC78BDBDBEB8BFBF57
:2041800080C0C1C0C24283C3C4C4C5C0C6C4C7C3C8C8C9C9C20ACBCBCCCCC5C5CECEC2CF20
:2041A000D0D0D1D0D2C2D3D3D454D1D556C6D7D0D8C0D9D9C2DADBD1DCC4DDCD5EDEDDDE20
:2041C00060E0C1E062E0E3E3A0C4E525E4E4E7E3E8E8E9E0EAE2EB0BEC6CADEDE2EEEBCC22
:2041E000F0F0F1F1F2F2F3F3F4F4F5F5F6F2D7E7D8E8D9F97AFAF8FBFCFCFDFDFEFEFFFFD6
:2042000000000101020003030404010506060307000809090A0A0B0B000C0D0C0E0C0F0FCF
:2042200010101111100403131404150016061714081019190A12131B141C191D0E1E1F1F3A
:2042400020202121222023222004252426242627280029012A2A012B2C042C252A0E270B94
:2042600030003131643F323F347F312B046B376238D4FFFFFFF6FA183C3C3D3D3E3E3F3F84
:2042800040404141424241430404454506464647484849014A0A4B4B4C444D054E4E464FD2
:2042A0005050510152025341541055441656035718B05910525A0B5B5C5C5D0D5E5E5F5F82
:2042C00040606061622243630464604566626723686869690A6A6B416C2C6D0D6E062D6E11
:2042E00030703160722073737474717576747763787809793A0A73137C147D7D7E7E707FD2
:204300008080810182828383840885848682858788108989028881968C8C8D8C8E848F8FBC
:2043200090908111928201939490159196869793989899999A989B999C9C9D1C8E169F9F78
:20434000A080A181A2A0A382A4A4A4A4A2A687A788A8A1A928AAABA1ACA0ADA9A0AEAF2F48
:20436000A0303191B222B331B408B185B6B0B7B1B88899383A2AB982BC1C9DAC3E8CBFBC1D
:20438000C0C0C1C1C2C0C2C3C4C4C44582C6C087C8C8C9C9CACAC3C8CCC845C5CE46CBCD69
:2043A000D0D0D1C1D212D3D1D4D4D5D1D6D0D7D0D808D9C8DA90DBDBC0DCDDDCDEDEDFDF38
:2043C000E0E0E101E0E2E2E1E4E4E5E5E6E6E3E5A810E9E8D24AEBEBECECECEDE8EEEFEFB0
:2043E000F0F0F0F1F2F2F3F3F494F5F1F6F6F785F8F8F9F9DAC0FBF1F8FCBDFCFEC6FB196F
:2044000000000100020002020004050006060707080808010A0A030B0C08050D1C6A0F6B11
:20442000106B116B126B136B10691169166313491869196B1A6B1B681C4B1D6B16BFC2FF30
:20444000DFFFFFFFFFFFC3FFFFFF6FFFFFDFFF7FBF8FFFFD2A2A232B2C2C2D292E0A2F07F0
:2044600030303120323233113068203436363737383839393A3A3A131C3C3C353A3E223FD8
:204480004040414142424343044445014646474E484809494A024B4B404C0D414E4E4F0FC9
:2044A00050405140525242435414551556165703585848511A104B534C444D5D445E5F5F6F
:2044C0006060610162626363642465056646670348686969622A496B4C6C6D6D6E0A6F0DE0
:2044E00070007111707273716474705502767737780879197A627B0B7C3C1D6D7E163F7E3A
:2045000080808001028283838484858506868787888889898A828B0B8C0C9A8D8E0E8B8DAD
:2045200090909111921293139404959496929586089899991A9A839B9C9C9D9C9E9E8F0388
:2045400080A0A12104A206A3A4A4A581A682A707A0A821A82A22AB54A88CA92DAE26AFA35A
:20456000B0B0B181B280B31394B494B4323297179888B989BA82BBA3BCB0BDA1BC2EBFBDE3
:204580004040C1C1C242C3C3C4C4C5C5C6C0C7874088C0C9424289CACCCCCDCCCEC6CFC825
:2045A000D0D0C1519290B283D4C4C4559656D7D7D8D899D9DADAD383CC58559C1E569F173C
:2045C000E020E1E1E2E0A3036400C565E6C6E7E1E8E0E9E98AC8EA4BEC24ED65AEEEEFE1C0
:2045E000F0E0F171F2C073C2F488F5F4E276F305B828F9E1FA8AFBF8FCFCFDFCFEC2FFF01C
:2046000000000101020003030404050506060703080809090A020B02040C0D0A02060B0FE4
:2046200010001110121201131400150116161617100818111A0013131C3F1D3F1E3F1F3F9B
:20464000203F213B0037211F203F2AD0FFFFFFBFFFFFFFFEFFFEFF8DFE2C052C260A0D2FC8
:2046600030303131323233333434340528142337383039113A3A3B3B3C3C3D3D3E3E3F3FEF
:2046800040004100424243410444454046464747084049414A0A49034C4C4C4D484E4F43DF
:2046A00050005151520253534454455144565307481059595A405B135C44595D4A5A5F0F72
:2046C00060204160620061632424646522246703684069016A6A686B6C0465294E66224FF6
:2046E00070307171727201717474354576305777006879787AF0587B607C7D7D7E7E7F7FA6
:2047000000808181828283838080058486008385888888898A8A8B8B8C8C8D8D8E8E8F8F3F
:20472000908091819280938394809591968497909898899998908B998814999D3C9E9F814A
:20474000A080A1A182A2A3A3A42485052682A184A880A929AAA0ABA8ACACAD05AEAC84A748
:204760009020A121B282B3B3B4B0B505B6B0B7B1B8B830B9BA82BB83BCA0BDBC00BEBFBF5D
:20478000C0C0C1C1C2C2C1C2C4C0C5C4C680C7C7C8C8C9C9CACACBCBCCC4CCC1CCC8CFC79C
:2047A000D000D1C1D2D0D3D0D4D4D5D1D606D5D658D8D981DADADBDBDCDCDDDDD8DEDFDFA3
:2047C000E080E061A2E2E2E3E4E4E5E0C4E6E0E5E808E949EAEAEBE8ECE8EDECEEE0EFEFD1
:2047E00080E0F1F0F202F162F4F4F5F4F6F4F7F7F0F8F9F9FAF8EBF0FC7CFCFDFEFEFFFF76
:204800000000010102000303040405010600070708080908020A030B0C0C0D0C0E0E0F0FC6
:2048200010101111120203130400111516021714181819191A001B03141C1D2A10161F1F2A
:2048400020202121222023232424250528220627082828212A0A2B232C202D092E282F2142
:2048600030303111103233113400353136343737383839192A3A190A3C2C7A303E3A1E3F6E
:204880004000410142024303407F407F885E477E486E497E4A7E4B024C0A4D2E4E6E473E3F
:2048A00040FBADFFC1FFFFFFFFFFFFFFFF1FFFC7FF07FFF7FF02594B5C5C5D415E5E5F5809
:2048C00060206161446263436404650566666566602809C262426B6A6C6C056D6E606F6826
:2048E0003070417132A270737474647076707777707879797A7A73137C04751D5E7E7C7FE2
:2049000080008182820280828400858486808787888888898A0A8A830C8C8D058E8E8F8FC7
:2049200090909191929093939410959486169307989899999A989B989C9C9D919A1E9F8FD7
:2049400080A080A1A202A3838480A581A6A0A707A80841A1888A0BA9AC0CADA0AEA0AFAC28
:20496000B000B191A2B2B10234B09514B616B5B0B8A0B9B982BABBBBBCB4AC3DBE8CAF377B
:20498000C0C0C1C1C284C3C3C404C5C1C486C783C8404990CAC0CBCBC8CCCDCCCE0ACFCFC3
:2049A0009090D0D152D2D1C3D4C0D5D0D6D0D7C2D888D909D894CBD3CC44CDDDDCDEDFDC8B
:2049C000E0E0E1E1E2E2E3E3E4E4E5E4E6E6E7E7E888E8C1AA8AE8E2EC4CECEDE8EEEFEFC4
:2049E000F000F1F1F2F0F3F3F460F5B1D0F6F3F0F8F8F9F9FAFAFBBBBCDCBDDCFEFEDFFFE3
:204A000000000101020002030404040502060707080809090A0A030B0C18053F063F1A86D5
:204A2000FF07FF82FFC1FFC1FFC1BFDF0FBFFF0EFFEF7FFFFFBFFF0FFF05FF0BFF03FF826D
:204A4000FFFFFFFFFDDFFFFFBFFFFFFFFFF8FFFCFE002929022A292A242C2D2C2E2E052FCA
:204A600030303130323233333014043532001637380838013A023B3B3C3C153D1E1E373B0C
:204A800040804101404241434444454546064347000809494A0A494A4C4C4D094E4E074F05
:204AA00050405141505042534454405516024717481859590A5A5B58541855195E4E571ED8
:204AC00000606061620263632064656066066742682869496A2A6A636C646C65086E6F2FD5
:204AE00070507151720273017420713566567577780029F27A7A7B037C087D057E1E7F77CD
:204B000080808181828283838484850A80868305888889898A888B0B180C898D808A8F8F38
:204B200010909180921291139404959506969796889088999A988A839C9C099D9E9E9F9030
:204B4000A0A001A180A223A3A4A0A5A426A6A7A0A8A8A0A9AAA2AB0BA88CACA5AAAAAD2F9B
:204B6000B030B101B222B3339434B53596B4B7B7A838B800B88ABBBB78BCBDBDBEBCBFB890
:204B8000C0C0C1C1C2C2C1C24484C5C0C684C7C0C800C9C802C8CAC2CCCCCCC0CE0CCFC1B1
:204BA000D0D051D1D2C0D3C1D4005501D4D6D713D8D8D0D9DADADBC2DC5CDDC0DE069BD180
:204BC0006060A1E1E2E203E364E4E4E5E2E4E0E7E8E0E980EAEAEBEBECECEDEDEEC467AFF6
:204BE000F0B0F1F0F2F2F3F0F4F0F5F1F676F0F7B8F8F8F1FAF0FBF1FCFCFDFCFE36FFF8C5
:204C000000000101020203030404050506060306000809080A000B0B0C1B0D2F062F0F3F42
:204C2000101F1137123F113F143F1537122F170D18171917181E033B0C03157B1E7E017ECB
:204C4000207E217E227E236C48DFFBDFEC220727282829092A0A2B2B2C080D2D260C0F27C9
:204C600020302131322023333414353506363737302839391A2A333B34183D213E203F3C8F
:204C800040404141424243438044044546464707484849094A4A434B4C4445494E4E4F47CD
:204CA0005050515152125303540455554646571550585959485A5B5B5C145D155E465D4623
:204CC0002040C160626043636464650544666763686061694A0A6B0B6C0C6D6C6E0A6B4D68
:204CE00070203151727271737414757576767777787859797A127B1B7C7C7D7D407E7F7FFC
:204D00008080018182808383848085848684878788088989808A89818C048D818E828F836E
:204D200090909191809293938414849514969717980899199A9A0B9B1C9C9D9C9E9E9D9E5C
:204D400000A0A181A204A383A480A584A624A6A7A888A8A12AAAAA8BAC80ADAD8AAEAFAFC3
:204D6000903031B1B092B322B4B4B58196A2B787B818B9A1BA3272113480BD9D08BEBF2F0B
:204D8000C000C101C280C303C4C4C5C544C6C747C808C9C9C2CACBC8CCC4CD05CECEC0CF51
:204DA0005090D191D252D353D4C4D5C5D6D6D7D718D8D908D2D8DAD39CC0DDC1DE0ADFDF13
:204DC000E080E0E142E2E343E4E0E5E0E6E0E7E06028E9E9EA0AE9EBECE0EDE1EEE0EFEEEB
:204DE000F010F180F2F0E0F3B4B4F500F6FFF7FEF8F0F92FBAC1FBF0F4837DFFFEFEF7E00A
:204E0000007E015E0202016E047E047E067E077E087E096E020E0AFFE07FFFFFFFFF0F07AE
:204E200010101111120013131404150516061713101819191A181B361C381D1C0E161F1FB4
:204E4000400020012222232348242521262007270808092908082A032C202D002E282F2E96
:204E600030303131322233133430311506023737383839393A3A3B383C3C3D2C363C023761
:204E80000040410142404303444405450206470A00484949484043414C4C4D0D4E064F4FD3
:204EA00050505151425213115054455556505757584059405A18594B5C4C5D5D5E5E5C01A4
:204EC00060006161606263636440656066666767686869696A0A2B6B684C6D0D6E6E6F6F91
:204EE00070007071723073535464357156427777787879787A78017B7C7C7D507E0E7F3DB9
:204F000080808180828282838084848086868787888889898A828B8B8C8C858D068E8F8B49
:204F200090909191929093139490959196829391809811998A9A9B989C9C9D9D9E9E9F8FEC
:204F4000A0A081A12200A203A4A4A525A626A7A0A8A0A981AAAA0BABA4A80DAD8AAEA7A8FA
:204F6000B060B1B0B2B0B333B09415B4B630B7B78098B9B9BABABBBBBC88BDB006BEBFBFB0
:204F8000C0C0C1FFC002C3C3C4C4C5C4C6C2C7C7C840C9C9CAC8C3C9CCCCCDCCCECECFCF3F
:204FA000D0D0D1D1E412D1D2D0C4D5C15656D7D7D8D8D9D9DA1ADBDADCD0CD009EC0DF8150
:204FC000E0E0E1E1E2E2E3E3E4E0A1C0E6E6E7E7E8E8E9E9EAD0C9EB98ECCDE1EECEC3EF56
:204FE000F0F0F1F1F2F2F3F3F4F4F5F0F6F6F0F740F8F9F9FAFAFBFBFCFCFDFDFEFEFFFF85
:205000000000010102000303040005050004070710080909080A0B0B0C0C0D0D103F073F4D
:20502000103F113D126B016B146B15681603172A1869006A120936F7FFFFFF05FFFFFFFF63
:205040003E20202122002323042425214C202723282821292A022B032C2C2D0D20265A09F6
:205060003030303132323303340435343632102738381939383A3B3B3C3C3D3D3E063F2F47
:2050800040404041020043434404454540464747484849494A0A4B49004C0D4C464E4F4FC0
:2050A00050105151525253535444544552164353585859095A125B135C1C555D5E1E5B0F79
:2050C0006060210162626361646021646664CE67686869296A6A626B6C686C652A6E670770
:2050E00070307171727270737474755576427737781879F07A707B597C7C097D7E7E7F009F
:20510000008081818282838308848405860C808380808189828A83888C8C8D0D8E0E8F8FCC
:2051200090908191821293919014959596169717989899199A9A838B9C8C9D98843C9F9FDE
:20514000A080A1A1A222A303A42421854CA6A7A5A828A9A9AA2AAB2BACACAD2DAE82AFAE4C
:20516000B0B0B1A0B2B280B3B4B4B5B4B682B7B098A8A8B1BA2AB3829C88BDBD7CBE07BF27
:20518000C0C0C181C2C083C1C0C4C1C5C6C6C3C790FFC9FF4AFF4BFF8CEBCDE8C6ABCCEB29
:2051A000D0E3D1ABD20BD3EBD0EBD5E8D4C9C76B08E3D9ADCA5ADBDBDCDCDDDDDEC2DFC1E1
:2051C00060A0E1E0E2C2E3E3E064E4E5E2A283E3C8E8E1E9EAEAEBC1ECE0EDEDEE0EEFEF33
:2051E000F070F1D1F2F2F351F4E0F5F5F6F603F7F8F0F9F87AFAF9FAFCFCDDED7E00FFF84A
:2052000000000002000003030404050504060707080809090A020B090C0C0D050E0E0F07BE
:2052200010102211121211021014150510161717181819191A181B1B0C141D1D1E281F1FAA
:205240002020212122222023242425202626232728082908220A2B2B202C2D202E0E2F0F2C
:2052600030303031323233331434352136023707380831391A3A011B3C3C3D1D7C3E3B09A5
:2052800040404141024243434444454406424540904849490A4A4B424C0C4D4D0E4C4F0F6F
:2052A0005050415112521353544455554046574550185958025A1B431C5C5D0D5E165F0501
:2052C000C0606161626261636464656564406767686069696A6A036B6C406D056E6E6E6FAD
:2052E00070307162727233703014352476767777387809797A787A7B7C786C75387E770B17
:2053000080808181828283818484818486068707888889898A8A808A880C8D8C048E8F8FBF
:2053200090909191929293139484841506861783989899999A8A9B9B9C989D909E809F7F31
:20534000A0E981E9A2C3A3EBA4EBA5E2A60BA783884AFFFFFFBFFFF0FFE0FFF0FFFCFFFC35
:20536000FE20B1B1B090B3B13434B195A6B6B7B7B8B881B9BABABB833CBC1D6A3E86BFBE75
:20538000C000C141C202C303C484C545C6C4C6C7C8C8C8418A80C3C2CCC0CDCDCECE0FCF90
:2053A000D0D05191D2D29391D4D4D5C5D6C4D797D858D909DADAC1DADC80DD5DDE9ED00F07
:2053C000E0A0E101E202E343E464E505E6E6E4E740A869E8E2E0EBA9ACECEDECEE0EEFE8C5
:2053E000F000F1C0F2E0F303F4F4EA25F226F7F0F8F8F9F9FAFAFBFBF4B8FDC0DE1EFBFF23
:2054000000000101020201020004040406060707080809090A000A0B0C0C0C050A0E030BCD
:2054200010101111021213101410151114101315181819091A1203191C1C1D1C1E1E1F0BEC
:2054400020200120222200222424252526262427282829092A082B230C242D2D0E2E2F2144
:2054600030003131323230333414353436203335203839383A3A3B3B083C3D3D3E3E3F3FF9
:205480004040404142024343440445054646404748404149484A4B494C4C4D0D4E064F07C8
:2054A00050505111425251435414552A56524047585859095A5A585BB8144C5D1A1C4257EF
:2054C000606061616262627F04DAFFFFFFC26367684869696A6A6B6B6C6C6D61664A4D6F00
:2054E00070707171727203737474747072546477687079797A7A017B7C7C7D017E7E7E3FBA
:2055000080808101828200838884858406828187888889898A0A8B0B8C048D0D8C8E8F8F2F
:20552000801091918292802694949594961697171098990812921B9A9C809D159E169F1F72
:20554000A0A0A1A1A2A2A0A3A4A4A4A5A2A0A7A7A808A929AA0AA3560C2425ADAEA68F8F7E
:20556000B030B131B282B3B3B414B535B616B7A688A8B938BABA0BBBBCBCBDBDBEBEBF81EB
:20558000C040C1C182C2C3434444C5C5C6C6C7C780C8C9C9CAC2CBCAC488CD8AC684CB87D9
:2055A000D010D151D2D2D0D390D4C4559292D7C7D8D8D8D1DA82DBC1DCC0DD85DE16CF0B46
:2055C000E0E0E1A1C0E2E0E3E464C5E46660E1E6E800E909EA82EB8BEC0CED2DEE28CE07ED
:2055E000D0A0E071B212F300F4F0F585F6E0F7F3F0F879B9FA7ABAFB7CFCFDFDFEFEFFFF66
:205600000000010102000303040405050C040007080009090A0A0B0B0C0C0D080E0E0F0FAC
:2056200010101110120213111428151516161717181819191A1A190B040C1C0D1A1E1F1FC8
:2056400020202121222223232424252120262325282801292A0A2B0B2C042D0D2E2E2D2F1C
:2056600030301130323230323430353536363737003838393A382A333C3C2D3D3E023F2121
:2056800040404041424243034440450446464747484849494A0A0B4B484C0C4D4A0E4F4FA9
:2056A0005050515152125313545455055656075748504959185A1B5B4C5C5D5D5E165F0378
:2056C00060206161626261626420640126226767686868216A6A416B6C6C6D056E066F07F5
:2056E00070707131507262517424757576067707780879596A7A5B6B7C6C7D7C7E027F0358
:2057000080808181828283838484858502868787888801898A828089880C8D0D8E0A8F0FC2
:20572000901091918284938294849584960C9797980899099A9A9B9B0C148C819C8A8F9766
:205740000020A101A202A3A3A404A505A6A6A5A620A8A9A882AAAB82ACA0AD89A6AEA1AF1C
:20576000B090A031B2B232B3B400A415B616B783B818B9B9B0BABBBBACBCB53D9EBEBCBF09
:2057800080C0C1C1C2C2C3C3C40481C58082C7C7C8089201CAC0C983CC04CDCDCECCCF0F84
:2057A000C050D0D1D2D0C353D4D4D505D656D7C1D818D9D9944A5BDA049CDD0DDEC0DF0B73
:2057C000E000E140E262E2E3E424E585E6E0E707E8E8E8E9E84AEBE9E8ECEDEDEEEEEFE891
:2057E000F000F1C0E272F1F274F4F544F6C2F7F0F8F8F9C0FAF0FB7BFCF4FD7DFE7CFE8224
:2058000000000101000203010404050506000707080810090A00090A040C0D01060A080FCF
:2058200010101111120013130414041512000617081019191A1A181B1C1C1D1D1E0E171F09
:2058400020202120220223462024252426262727280828210A2A092B0C002D2D2E2E2C2F15
:2058600000303131323033333404343100163707382839393A123B0B3C2C39092E3A3D2FFB
:205880004007410F425F433F447F457F467F407F487F487E0AC1FEF7FFC2FF054E4E4F4FF7
:2058A00050101151500253134450550156165757405859415A021B59585C1C5D0A1EBE4213
:2058C0006060612162224163646465456666676700686960686A2B2A642C0D6C6E046F6FA1
:2058E00070707070727073333054747132727777407878797A7A7B037C087D5D5E7E7F7F12
:2059000080808181828281820480858186868086888889898A888B0B8C8C8C058E8C8E8740
:2059200090908011929290939494959496169793881011999A92819B9C9C9D9D9E0A9F8580
:20594000A0A0A081A222810284A4A5A5A6A6A7078888A9A9AA2AAA83AC24ADA51C8EAFAFA6
:2059600080B0B1B1B2B2B383B484B52886A6B50630B8B9B9BABABBBBBCBCBDBCB63EBFBF58
:2059800080C0C0C18280C2C3C4C4C5C48C46C703C8C84189C8CACBC0CC0CC54DCECECFC185
:2059A000D050D111D202D3D140909195D69283D7D8D8D9D9DAB0DB83DC0CDDCD5CD0CF5F7F
:2059C000E060E1E1E2E0E381E4E065E0C0E6E7E7E8E8E9E8EAE2EB89E80CDAED02EEEFEFB8
:2059E000F0F0F181F282F3E2F4F4F511F6F6B7F7F878F9F9F8F8FB81FCF8FD2DFEFCFFFCA3
:205A000000000100020200030000040502000707080008090A0A0B0B0C0C0D0C0E0E0F0BBB
:205A200000101111101203131414151510161310181858190A1A0B0A1C1C1D151E161F0BBF
:205A400020202121222223232424252522042727002029092A2A2B0B243825290C2E272B22
:205A600030303131321233133434013436343717381838313A3A3B383C2F3D053E173F2183
:205A8000407E417E407EFF7FF7BFFCFBFFFFFFFFFFFFFFFFFF4A4B49084C404D4E4A4F4FB4
:205AA00010505140525251535454554456544757581059595A585B135C085D5D5E1E5F5F92
:205AC00000606161606263236464214566286767686869016A0A6B4B6C2C6D6D6C6E6F674C
:205AE00060507171325073037424753576767777383879797A4A7B3A743C097D7E7E7F78FC
:205B00008080818182828303840485858606878788808889888A8B898C8C8D8D8E0A8F82B3
:205B200090209191829291821414950596849707980899099A9A9B93809C8D0D9E9C1F97A8
:205B4000A0A0A1A1A2A2A381A4A0A5A1A4A6A70AA8A021A9AAAAA8ABAC88AD05AEA6AB2F09
:205B6000B0B0B091B2B233B3B4B4B5B5B6B6B7839828B8B9B8983AB3BC14BD81BE84BFA0A5
:205B8000C0C0C1C1C202C3C340C08905C6C6C5C7C8C8C9C9CAC8CB83CC0C8D0CC6CCCFC778
:205BA000D0D001D1D2D2D3D3D4D0C5159216D717D8D859D9D8DAD3D8DC08DD85DEC0DFC053
:205BC000E060E1E1E222A3C1E4E0C50166C46767E828E8E9EAE8EB83ECE0ED0DEE0EEFE126
:205BE000F0B0F131F0C073B3F404F5E0F6E0F7F0F8C0F901FA7AA2FBBC7CFCFDF8FEFFFF9B
:205C000000000101000003030404050506060707080801090A0A0316040C0D000E0E0F0FB2
:205C200000101110121201131014041512121617180819191A1A1B1B1C001D1D001E171B0B
:205C40002000212122022303240425052626230520282909022A0B212C0C2D2D202E0F20F1
:205C600030201131301032332434343502363737382839093A2A3B0B3C3C3D013E0E3F3FBA
:205C80000040414142404343444440844644464708480A494A484B034C044D0D0E4E4F07F8
:205CA0005040113F507E53FB547E553E565E577E585E197E4A7E515E587E1D5C5E165F16FE
:205CC000602E6140625A416E6416652E223E677E603A617E682E63BFACFFF0FFFFFFFFFF11
:205CE000FFFFFFFFFFF7BE113474747576067707780879707A007B0B7C7C7D7D7CF87F7F8B
:205D000080808181808003838000058506868787888889888A008B8B808C8C85828A8F8F4F
:205D200090909191929093139484909194949797889891199A9A9B9B9C9C9D9C9E0E9B1DC1
:205D400020A0A181A2A281A3A480A525A606A727A82889A92208AA2304A4AC0DAE2EAF8B21
:205D6000B010B1316432B383B410B51596A63733B8B881B9BABABB13BC84BD3CAE363F9F9A
:205D800080C0C1C102C2C3C3C4C4C4C4C2C6C7C3C8C8C101C8C0CB4BCCC0CD09CEC0CF0B1B
:205DA000D0D011D1D212D3D154D0D1D5C0D6D7D6D818D9C1DAC2D90ADCDCDDCC5EDECFC196
:205DC000E0E0E1C0E202E3E0E404E505E682E781E808E9C1EA02EBC968ACADEDEEEE03EF63
:205DE00030E0F1F1F2F2F3E0D4E4F5F514F6F7F0F880F9F1FAF8FBF1FCE0FD2DFCFEE3FF45
:205E000000000101020003030004040502020507080809090A0A0B010C0C05010E0E0207D6
:205E200000101111101211131410151510161710181819190A12191B1C1C1D1C1E161F1BBE
:205E400020000000220022232424250126262127282829212A2A2B2B2C282D0D0E0E272B79
:205E600030303111323233333414301504363317383838193A323B0B3C183D0D3E221F3FD6
:205E80004040414002404343444445454046470348484849804A434B4C0C494D4E4E4F4FB6
:205EA00050505151525051121054554456544257585059195A105A5B5C4C4D551E06575EFF
:205EC0006000616160626361646461454666672768086969606A69682C2C4D6D665F637FDC
:205EE000707F717F727F73057417757F367F70FDFFFF2FFF1FEF7FFFFFF0FFFFFFF0FFF036
:205F0000FF05FFFFFF0483838484850584868087888889898A8A8B038C0C8D0D8E8E8F0F23
:205F20001090919192809392941495159696978598089918821A9A93809C9D989E829F9F05
:205F4000A0A0A001A2A281A38404A5A186A6A7A3A888A909AA2AAB03AC0CBA0DAEAEAB2D9D
:205F6000B010B180B2B2B0B3B4B4B5B4B682B583B80899283A9A0BBBBCBCBDBDBEBEBFB030
:205F8000C000C100C2C2C0C3C480C5C5C6C6C785C008C9C982CACBC988CCC98DCE0ECFCF75
:205FA000D0D0D1C1D2C0D3D0D404D405D292D703D8D8D9D9D0DADBDBDCDC5DDDDEDEDFD06C
:205FC000E0E0E1C1E2A2E381E4E0E5E4E6E4E6E7E808E9E8EAE2EBEBECECE0E5AEE807EBCB
:205FE000F0F071F1D0F2F3F0F4F0F5F1F6F0F7F0F8E0F9F9FAF2FBD8F880FDC0FEF8FFF878
:2060000000000101020200030404050006060701000001090802030B000C0D0C0E0E0F0FD5
:2060200010101101020022111014111516161716181819191A18190B080C1D111C1E1C1FE7
:2060400020202121222023232424210126260207200821092A022B222C002D2C2E022F2E9A
:2060600030303120323032323034353136363037383828313A02331B1C383D3D3E3E3F3FF1
:2060800040404101424043434004418806464307480849494A484B0B4C04980B463F486F9A
:2060A000500F517F520553605403556B44494703486349694A4A536B406B5D625E625F6B16
:2060C000002B616A607FFFFFFFFFFFFFFF3FFFFF7F80FFFB0FFFFCFFFFFFFFFFFFFFFFFEBC
:2060E000FFFF7011627073137460756076707740786079017A003B7A3C7C7D6C76067F7FE7
:2061000080808181808083838484858086868782880092898A828B89048C1A888E8E858F30
:2061200090909191929291809094958516948717989899999A989B9A9C9C8D019E8E1F9FE9
:2061400020A001A1A2A0A3A0A400A581A6A0A7A1A880A909AA22AB8B08ACADACAEA0AFAE6C
:20616000B000910032B293B394A4B585B6B6A1B7B8B8B9B9B8B8BB81AC3C199DAE8AB783E0
:20618000C0C0C1C0C2C2C3C3C4C4C58146C0C5C6C808C9C8C2C2CBCBCCCCCDCDCECCCEC7B9
:2061A000D010C05192C2D0D3D0D4D5D1D6D0D7D1D8D85099DA829BD918DCDDC0DEC0DFDF09
:2061C000E0E0E1E1E2E2E3E3E4E4E5E4E666E7E7E8E0E969EAEA60EBECC0EDECEEEEEEEF91
:2061E00070F0F1F0F2C0F3F1F0F0F1C4F676E2F7F8F8F9F9FAFAFBFBFCFCFCFDFABEFFFF7B
:2062000000000101020203030400050506060607080809090A080B080C18010C060C0E0FA4
:2062200000101111121012131400141512161712180819191A1A181B1C1C1D1C1E1E1F1FB3
:2062400020202101222223612424252026202727280829282A500B2A2C0C0D052E042F2EEA
:2062600030303131321023331434350536360233003839393A383B30343C3D3C203E3F3F55
:2062800000404140424243034440454046464747484048804A0A4B4B4C4C054D4E4E4F48F9
:2062A00050505101505253514454555516565750580059015A425B0B545C5D0C561E5D4F64
:2062C000600061016202630320646565CC6661636860690948620349680C6D6D6066DA4090
:2062E00070607171727073427464750476725567787879017A70017B7C7C7D7C7E407F7FE3
:2063000080808181828083838004819F84E383C9880B89EB8AE88BEA8C3FFFFFFFBFFFFFA9
:206320007F03FFC2FFFE939394809591949097858810989924829B829C9C9D9D9E9E9F9F05
:20634000A0A0A1A00422A180A004A5A12682A7A0A888A9A0AAA8A8A38C0CAC25AAAEA78F8F
:20636000B080B1A1B2B0B3A1B4A0351596B6B397B898B9B00AB236B8BC3CBDB800BE3FBF25
:20638000C0C0C101C280C1C3C4C4C5C5C6C6C7C7C8C8C9C1C8C0CBC14C44C9CDC0CECFCF49
:2063A000D0D0D1D0D2C0D3835410D5C4C2D683D6D8D8D9D8DAD8DB0BDCD0DDDD8EBCDECE71
:2063C000C0E0E0E1A2E2E3E3E4E4E1C4E6E6E785E8E8D2E8EAEAEBE86C04C8C16E04EDEEF6
:2063E000F0F0D1F1F2F2F3F3F4F4F5F5F654F6F7F8F0E879BAFAFBFBFCFCFDFDFEFEBFFF89
:2064000000000100020203030404080506020507080809090A0A0B000C000D0D0E0E0F07AF
:206420000010001112241313141415151016170710101932121A1B021C1C1D1C1E0E1F18C1
:2064400020002121222223034824042522262723282801292A282B032C0C255A0C0E2B0F44
:2064600030303131123233333430350136203737383019383A32392A3C3C213D3E3E3F3801
:2064800040404041024042434440454546464647404849014A4A0B0B44484D4C46464B0F86
:2064A00050405101521253135004541552525547585F583F5A7F5A7F587F5D7F5E7F5F053F
:2064C000607F612B606B036964636500662363686869696B6A036B2B6C626D036E6B6ED29B
:2064E000FF707051327270737474751576267773087871395A72215B7C7C7D617E787F0B25
:2065000000808100028283818484858186808707880888018A8A0B8B848C8D8D8E808F8244
:2065200090101191921293919018911596169785981099099A129B839C8C9D0D1E9E9F9F5B
:20654000A0A0A181A202A381A4A0A5A1A48681A5A820A9A9AAA8AB0BAC80A989AE82AF0FC9
:2065600030B091623232B382B4B4B581B6B4B7B0B880B939BAB82AB39C1CAC25BE0EBFB8FB
:20658000C000C1C1C0C2C3C0C4444505C6C680C7C8C8C9C9CAC8CBC2C80C8D09CE8E8FCF2A
:2065A000D0008051D212D3C2D414D581D688D7C1C820C9D1B482CB5314DCDDDCDEDEDFD89B
:2065C000E020E101E20261E224E0E5E4E626E7E1E800C900E282EB83ECE0EDE8EEECEFE83C
:2065E000F070F151F0F203F1F400F5F0F6F6F7F6F8F0F9F8EAC2FBFB7CECDDFD7E04FDFE37
:206600000000000102000303040405050606070308080100080A0B020C0C0D0D0E0E0F0FAD
:2066200010101111121013131414150416121506181818190A1A1B1A1C1C011D1E0C0F17EC
:20664000202021212222202324242525262027272028292802222B212C282D212E202F22C1
:2066600030103031323231334930343532303737383839393A3A3B3B3C3C35391E383B3F7D
:2066800040404140420243034444414146420747480849484A0249484C4C4D414E4E4F437D
:2066A0001050225112104253540D451B56435770585F597F582A532B442B0D2A5E6B5F686A
:2066C000606B61686241236B640B656366686762686B68FF1BDFFF71FE640D6D6E6C6F60FE
:2066E00070007171727073327434756470761777787879787A0A7B783C506D75163E7F63D0
:2067000080808181808283818404808586868707888089898A828B82048C8D8C868C8F8E3F
:2067200020909191929293939490959586949697988088919A9A9B989C9C9D9D9E9E979B30
:2067400020A021A180A206A1A484A5A1A6A4A7A3A828A981AAB08BAA8C88AD04A6AAA2AFFD
:20676000B0B0B1B1B2B0B3B0A484B4B51496B785A880B9B8BABABBB8BCBCBDB8BEA2BFBED1
:2067800040C0C1C0C2C0C3C3C4C445C4C6C6C747C8C882C18ACACA8BCCCCCDCDCECECFCF5D
:2067A000D0C0D1D1D0C0A3C1D454D515D6D6C1D7D8D8D9D9DADADB11DCDC9DDCDEDEDFC7C8
:2067C000E0E0E1E1E2E2E1E3E064E465E6E6E7E7E8E8E8E9EAEAE3A8E4E86DECEEE0EFDEC8
:2067E000F0F0F1F1F2F2F3F3B4F4F4F4F2F0EEF7F1F8F9F9FAFAFBFBFCFCFDFDFEFEFFFF05
:2068000000000101020203030400050402060305080809090A080B0B0C0C0D0D0A0A010FAF
:20682000100010111212011314001505161617170810111918101B021C1C1D1D1E1A1F1BFC
:206840002020210122220122202405242622252728002929222A2B2A2C240C252A2C202735
:2068600030303121322233133434203136263737307039383A3A3B3B2C3C3D3D3E3E3F1B96
:20688000004040414202414344444445064647434848494948480B434C4445014E4E4F4F78
:2068A00050505151524053415450515546525546585859595A12595B5C145D4D565C40570E
:2068C0002060604162606363646465214466636E686869606A0A6B696C2C294D6E6A4EFD34
:2068E000FF707161721271337434751576567737687878793A426B7B7C7C0D7D7E7E7F4310
:2069000080008101820283038484818586828507888889898A0A8B8B8C048D0D8E1C8F8F0B
:2069200020109191909293938494959096829785981899199A9A8B9A149C9D8D9E9E9F9F3D
